:020000001AC024
:10000200FECFFDCFFCCFFBCFFACFF9CFF8CF3EC06A
:10001200F6CFF5CFF4CFF3CFF2CFF1CFF0CFEFCFD2
:10002200EECFEDCF00010000000000000800050047
:1000320026000000F894EE27ECBBF1E0FBBFEBBF1B
:10004200E5BF8DE0A2E0BB27ED938A95E9F780E05A
:1000520094E0A0E6ED930197E9F7EEE2F0E08591F6
:100062009591009761F0A591B59105901590BF010A
:10007200F00105900D920197E1F7FB01F0CFEFE55A
:10008200EDBFE4E0EEBFC0E6D1E0BAC10A921A9237
:10009200FA926A937A938A939A93AA93BA93EA9377
:1000A200FA93EFB7EA93EAEAEDBDE0E0ECBDECE0EB
:1000B200E61510F4E1E06E2EE1E0E61519F4FCD14C
:1000C200FED141C0E2E0E61519F4F6D1FCD138C008
:1000D200E3E0E61519F4F0D1FBD132C0E4E0E61515
:1000E20011F4EAD12DC0E5E0E61519F4F6D1E7D115
:1000F2002AC0E6E0E61519F4F0D1E5D121C0E7E027
:10010200E61519F4EAD1E4D11BC0E8E0E61511F4D2
:10011200E4D116C0E9E0E61519F4E2D1D0D113C05A
:10012200EAE0E61519F4DCD1CED10AC0EBE0E6151F
:1001320019F4D6D1CDD104C0ECE0E61529F4D0D122
:10014200EAE0F0E068D25E2EE62D6394EA93A52DF4
:100152004CD0E1E0F0E0BE0ECF1EE991EFBFF99185
:10016200E991B991A9919991899179916991F990BE
:10017200199009901895AA93E881E064E7B985E29D
:100182008A95F1F7369A349BFECF349AE4B1F5B1F1
:1001920021960895AA9344D20C8110E0183040F4BD
:1001A200A2D111F4C39A01C0C398A1D11F5FF6CFA7
:1001B2000B8110E0183040F496D111F4C39A01C0BB
:1001C200C39895D11F5FF6CF0A8110E0183040F432
:1001D2008AD111F4C39A01C0C39889D11F5FF6CFA7
:1001E200C19AC19822D225960895AA9317D210E0F7
:1001F20000E030E0ED817FD119F431E000E04BC046
:100202007FD121F432E000E014E045C07DD119F441
:1002120034E000E040C0E430A0E0FA0719F438E02E
:1002220000E039C0E530A0E0FA0719F430E400E05C
:1002320032C0E630A0E0FA0721F430E200E014E038
:100242002AC0E730A0E0FA0719F430E100E023C049
:10025200E830A0E0FA0719F430E800E01CC0E93009
:10026200A0E0FA0719F430E000E415C0EA30A0E09B
:10027200FA0721F430E000E214E00DC0EB30A0E018
:10028200FA0719F430E000E106C0EC30A0E0FA070A
:1002920011F430E000E8EC81F0E0309711F4196FCE
:1002A20031C0E130A0E0FA0711F411682BC028D167
:1002B20011F41A6B27C028D111F41B6A23C0E43051
:1002C200A0E0FA0711F4136C1DC0E530A0E0FA07B4
:1002D20011F41B6617C0E630A0E0FA0711F41B67A1
:1002E20011C0E730A0E0FA0711F411EA0BC0E830C0
:1002F200A0E0FA0711F41B6F05C0E930A0E0FA078D
:1003020009F41B6E1A930A93A32F44DF8CD126960D
:100312000895AA9385D10A8110E0183048F4E3D0F9
:1003220009F4919A9198000F949A94981F5FF5CFCF
:100332007CD12396089574D100E010E0183038F48F
:10034200949A80990F5F000F94981F5FF7CFE02F68
:10035200099119910895AA9328971A9310E01430DD
:1003620038F4D6D0AE0FBF1FE0E0EC931F5FF7CF9B
:10037200EB85C1D021F4AC9AAD98AB980BC0C0D03C
:1003820021F4AC98AD9AAB9805C0BED019F4AC98E4
:10039200AD98AB9AEA85EF73EA87AA85BADF10E0D7
:1003A200E9851E1758F4B4D0EA0FFB1FFF93EF93B1
:1003B200C2DFAF91BF91EC931F5FF2CFAC98AD98C3
:1003C200AB98E0E0E983EA83EB83EC8310E0E98514
:1003D2001E1778F4A2D0E8E0AFD0A4D099D0AE0F27
:1003E200BF1FEC91F0E099D0B3D0A1D09BD01F5F9A
:1003F200EECFE981FA816B817C8118812C96089578
:10040200EAE3E7BBE0E0E8BBECE3E4BBE0E0E5BB4A
:10041200E2E1E1BBE0E0E2BBE3BFE4E9E2BFE0E04E
:10042200EFBDE1E0EEBDE9EAEDBDEAE9ECBDE0E0F9
:10043200E7BDE6BDEBBDEABDE9BDE8BDE2BDE5BD98
:10044200E4BDE3BDE4E0E9BFE0E0E5BFEAB9E0E82E
:10045200E8B9E0E4E7B9E5E8E6B9E0E0E0BFEDB924
:10046200E6BF7894E1E0EA93E6E1EA93A3E073DF82
:10047200E0936001F0936101609362017093630104
:10048200A0E079DE66277727A4EFB1E080E090E074
:1004920064D0DF01CB01EFEFF3E060E070E096D0D3
:1004A2007E2E8F2EA0916001B0916101E4E675D09D
:1004B2009E2EAF2ED7CFFFCFA72DB82D0895E8EEF1
:1004C200F3E071D00895E4E6F0E06DD0DF01089525
:1004D200EAE0F0E068D0DF010895A92DBA2D089571
:1004E200AB2DBC2D0895E02FE078E0380895000F81
:1004F200C598C59A0895F0E0E130A0E0FA070895A2
:10050200E230A0E0FA070895E330A0E0FA07089588
:10051200E12FF0E0DE0115960895A981BA818B8161
:100522009C810895E983FA836B837C830895EA0FA3
:10053200FB1F681F791F0895EE230E2EFD01BC01DB
:1005420031F0EE0FFF1F661F771F0A94D1F708954F
:100552006F2F660F660B762F08957A9F702D6B9F13
:10056200700DF89F700DE99F700D6A9F602D710DDF
:10057200FB9F600D711DE89F600D711D8827FA9F1A
:10058200F02D610D781FEB9FF00D611D781FEA9F22
:10059200E02DF10D681F781F08956E2F6A9FF001FC
:1005A2006B9FF00D08950024112490E1AA0FBB1F48
:1005B200001C111C0E1A1F0A18F40E0E1F1E01C079
:1005C200A1609A9599F7FD01D00108953F934F9349
:1005D2005F93002411244427552730E2AA0FBB1F42
:1005E200881F991F001C111C441F551F0E1A1F0A39
:1005F200460B570B28F40E0E1F1E461F571F01C035
:10060200A1603A9559F7FD01BC01D001CA015F9181
:100612004F913F910895C7DFFD0108953A932A93C0
:100622001A930A9308953B812A81198108810895BA
:00000001FF
