:080000001EC0FECFFDCFFCCFB6
:10000800FBCFFACFF9CFF8CF42C0F6CFF5CFF4CF78
:10001800F3CFF2CFF1CFF0CFEFCFEECFEDCF00009F
:100028000001000000000000010002002600080096
:10003800060028000000F894EE27ECBBF1E0FBBFB7
:10004800EBBFE5BF8DE0A2E0BB27ED938A95E9F70A
:1000580080E094E0A0E6ED930197E9F7E0E3F0E0B3
:1000680085919591009761F0A591B59105901590AE
:10007800BF01F00105900D920197E1F7FB01F0CF68
:10008800EFE5EDBFE4E0EEBFC0E6D1E011C20A92B1
:100098001A92FA926A937A938A939A93AA93BA9342
:1000A800EA93FA93EFB7EA931A9310E0EAEAEDBD00
:1000B800E0E0ECBDECE0E71510F4E1E07E2EE1E0D5
:1000C800E71519F4D40130D241C0E2E0E71519F47C
:1000D800D4012ED238C0E3E0E71519F4D4012DD2AB
:1000E80032C0E4E0E71511F4D4012DC0E5E0E715CE
:1000F80019F4D50119D22AC0E6E0E71519F4D5019B
:1001080017D221C0E7E0E71519F4D50116D21BC0B4
:10011800E8E0E71511F4D50116C0E9E0E71519F490
:10012800D60102D213C0EAE0E71519F4D60100D2CD
:100138000AC0EBE0E71519F4D601FFD104C0ECE0E2
:10014800E71529F4D601EAE0F0E08DD21E2FE72D5D
:100158007394EA93A12F3AD01991E991EFBFF991DD
:10016800E991B991A9919991899179916991F990B8
:10017800199009901895AA937BD20C8110E0183039
:1001880040F4E0D111F4C39A01C0C398DFD11F5FD6
:10019800F6CF0B8110E0183040F4D4D111F4C39A93
:1001A80001C0C398D3D11F5FF6CF0A8110E0183081
:1001B80040F4C8D111F4C39A01C0C398C7D11F5FD6
:1001C800F6CFC19AC19859D225960895AA934ED2CE
:1001D80010E000E030E0ED81BDD119F431E000E03D
:1001E8004BC0BDD121F432E000E014E045C0BBD1E2
:1001F80019F434E000E040C0E430A0E0FA0719F454
:1002080038E000E039C0E530A0E0FA0719F430E43E
:1002180000E032C0E630A0E0FA0721F430E200E066
:1002280014E02AC0E730A0E0FA0719F430E100E052
:1002380023C0E830A0E0FA0719F430E800E01CC059
:10024800E930A0E0FA0719F430E000E415C0EA301C
:10025800A0E0FA0721F430E000E214E00DC0EB3032
:10026800A0E0FA0719F430E000E106C0EC30A0E0A5
:10027800FA0711F430E000E8EC81F0E0309711F46F
:10028800196F31C0E130A0E0FA0711F411682BC0F2
:1002980066D111F41A6B27C066D111F41B6A23C00A
:1002A800E430A0E0FA0711F4136C1DC0E530A0E0BB
:1002B800FA0711F41B6617C0E630A0E0FA0711F43C
:1002C8001B6711C0E730A0E0FA0711F411EA0BC070
:1002D800E830A0E0FA0711F41B6F05C0E930A0E090
:1002E800FA0709F41B6E1A930A93A32F44DFC3D1AC
:1002F80026960895AA93BCD10A8110E0183050F4CC
:1003080021D111F4919A01C09198000F30D134D1C4
:100318001F5FF4CFB2D123960895AAD100E010E070
:10032800183038F424D180990F5F000F25D11F5F52
:10033800F7CFE02F099119910895AA9324971A935A
:10034800EF81E983EE81EA83ED81EB83EA8502D1CF
:1003580019F4AC9A16D10BC002D121F4AC98AD9A1D
:10036800AB9805C000D119F4AC98AD98AB9AE98563
:10037800E068E987A985BEDF8AE48A95F1F710E08D
:10038800E8851E1748F400D1DE011196AE0FBF1F95
:10039800AC91B0DF1F5FF4CFAC98F3D018812B96E7
:1003A8000895AA9328971A9310E0143048F4ECD0D3
:1003B800DE011596AE0FBF1FE0E0EC931F5FF5CF8F
:1003C800EB85C8D019F4AC9ADCD00BC0C8D021F4A6
:1003D800AC98AD9AAB9805C0C6D019F4AC98AD9856
:1003E800AB9AEA85EF73EA87AA8584DF10E0E9858E
:1003F8001E1768F4C9D0DE011596EA0FFB1FFF939C
:10040800EF938BDFAF91BF91EC931F5FF0CFAC9868
:10041800B8D0E0E0E983EA83EB83EC8310E0E98578
:100428001E1788F4B4D0E8E0D5D0B6D0ADD0DE0140
:100438001596AE0FBF1FEC91F0E0A9D0D7D0C5D06C
:10044800ABD01F5FECCFAD80BB24A1D0E0E1FEE0D4
:1004580060E070E0E3D018812C960895A2D0E9E01E
:10046800EA93E2E0A1D0A0D0A2D0EFE1EA9399D03C
:10047800EAE29AD09CD0EEE1EA9393D0E4E094D0FB
:10048800EA93A0E05ADF0895EF976997F1D089D0F1
:10049800E6E1EA93A3E085DF4F016394E4E16E1699
:1004A80018F0689420F86624E8D0EF966B960895C3
:1004B800EAE3E7BBE0E0E8BBECE3E4BBE0E0E5BB94
:1004C800E2E1E1BBE0E0E2BBE3BFE4E9E2BFE0E098
:1004D800EFBDE1E0EEBDE9EAEDBDEAE9ECBDE0E043
:1004E800E7BDE6BDEBBDEABDE9BDE8BDE2BDE5BDE2
:1004F800E4BDE3BDE4E0E9BFE0E0E5BFEAB9E0E878
:10050800E8B9E0E4E7B9E5E8E6B9E0E0E0BFEDB96D
:10051800E6BF7894A3DFA0E1B7E24DD0A8ECB0E045
:100528004AD0B2DFFBCFFFCFE8EEF3E064D0089506
:10053800E4E6F0E060D0DF010895EAE0F0E05BD0A7
:10054800DF010895E02FE078E0380895000FC59A9C
:10055800C5980895F0E0E130A0E0FA070895E23088
:10056800A0E0FA070895E330A0E0FA070895949A06
:1005780083E98A95F1F70895949883E98A95F1F7C4
:100588000895AD98AB980895E12FF0E00895A981FA
:10059800BA818B819C810895E983FA836B837C837C
:1005A8000895E1E0EA930895EA93E0E00895EA9374
:1005B800A0E0C3DEF6CF109639F08DEC9AE00197F3
:1005C800F1F7A8951197C9F70895EA0FFB1F681F5F
:1005D800791F0895EE230E2EFD01BC0131F0EE0FB8
:1005E800FF1F661F771F0A94D1F708956F2F660FB4
:1005F800660B762F08950024112490E1AA0FBB1FE3
:10060800001C111C0E1A1F0A18F40E0E1F1E01C022
:10061800A1609A9599F7FD01D00108953F934F93F2
:100628005F93002411244427552730E2AA0FBB1FEB
:10063800881F991F001C111C441F551F0E1A1F0AE2
:10064800460B570B28F40E0E1F1E461F571F01C0DE
:10065800A1603A9559F7FD01BC01D001CA015F912B
:100668004F913F910895C7DFFD0108953A932A936A
:100678001A930A9308953B812A8119810881089564
:00000001FF
