:0E00000025C0FECFFDCFFCCFFBCFFACFF9CF4E
:10000E00F8CF49C0F6CFF5CFF4CFF3CFF2CFF1CF83
:10001E00F0CFEFCFEECFEDCF0000000000000100DB
:10002E00F981BAABC36B7BA1FBEB0100020026008A
:10003E000600060028000A0084012E000000F89435
:10004E00EE27ECBBF1E0FBBFEBBFE5BF8DE0A2E01E
:10005E00BB27ED938A95E9F780E094E0A0E6ED9357
:10006E000197E9F7E8E3F0E085919591009761F04B
:10007E00A591B59105901590BF01F00105900D92D7
:10008E000197E1F7FB01F0CFEFE5EDBFE4E0EEBF46
:10009E00C0E6D1E033C10A921A92FA926A937A9329
:1000AE008A939A93AA93BA93EA93FA93EFB7EA9341
:1000BE00EAEAEDBDE0E0ECBDE8ECBE1608F4B39460
:1000CE0074D220FC04C021FC02C022FE0DC0639439
:1000DE00E4E66E1610F4AA9A06C0E8EC6E1610F45A
:1000EE00AA9801C0662401C0AA98E991EFBFF991C0
:1000FE00E991B991A9919991899179916991F99023
:10010E00199009901895AA93E881E064E7B985E201
:10011E008A95F1F7369A349BFECF349AE4B1F5B155
:10012E00219608952E97EED38BD28DD2E8EDF2E084
:10013E0060E070E08FD295D29AD2E2E0EA9383D259
:10014E00EAE3F4E060E070E085D29AD290D2E3E088
:10015E00EA9379D2E5E3F2E060E070E07BD296D2EA
:10016E0086D2A0E0D0DF4F01A7E0B0E084D3A4E6B2
:10017E00B0E081D376D3EF2FF0E0E05EFC4F4F017D
:10018E007394E5E07E1618F0689423F8772423FC28
:10019E000EC0E0E0E0936001E0936101E093620144
:1001AE00E0936301E0936401E0936501A4C030E045
:1001BE00353040F471D277D2E32F53D278D27AD23F
:1001CE003F5FF6CF30E0353088F4232F253060F4D2
:1001DE0063D275D238F460D280D265D282D288D200
:1001EE0080D288D22F5FF2CF3F5FEDCF88D23430EE
:1001FE0020F452D288D23F5FFACF8AD221F44093B4
:10020E00600150936101E0916001F09161018E16E1
:10021E009F0610F4689401C0E89420F830E0353061
:10022E0038F43AD240D2E32F2BD262D23F5FF7CFCF
:10023E0030E0353088F4232F253060F42DD23FD2B4
:10024E0038F42AD24AD22FD24CD252D24AD252D2D9
:10025E002F5FF2CF3F5FEDCF52D2343020F41CD25D
:10026E0052D23F5FFACF54D221F4409362015093A1
:10027E006301E0916201F09163018E169F0610F406
:10028E00689401C0E89421F830E0353038F404D297
:10029E000AD2E32FFBD12CD23F5FF7CF30E03530BF
:1002AE0088F4232F253060F4F7D109D238F4F4D135
:1002BE0014D2F9D116D21CD214D21CD22F5FF2CF87
:1002CE003F5FEDCF1CD2343020F4E6D11CD23F5F1D
:1002DE00FACF1ED229F44093640150936501BB24DA
:1002EE00E0916401F09165018E169F0610F46894FA
:1002FE0001C0E89422F80DD364960895EAE3E7BBB3
:10030E00EAE2E8BBECE3E4BBE0E0E5BBE2E1E1BB43
:10031E00E0E0E2BBE3BFE4E9E2BFE0E0EFBDE1E035
:10032E00EEBDE9EAEDBDEAE9ECBDE0E0E7BDE6BD14
:10033E00EBBDEABDE9BDE8BDE2BDE5BDE4BDE3BD93
:10034E00E4E0E9BFE0E0E5BFEAB9E0E8E8B9E0E4FF
:10035E00E7B9E5E8E6B9E0E0E0BFEDB9E6BF7894CD
:10036E00E8EBF2E2E0936001F0936101E093620149
:10037E00F0936301E0936401F0936501C0D068943B
:10038E0020F8A4E6B0E04AD2E89420F8CBDEFECF07
:10039E00FFCFAA93BBD20A8110E0183058F4E02F99
:1003AE00E078E03811F4919A01C09198B9D1BED19C
:1003BE001F5FF3CFB2D223960895A8D200E010E0CB
:1003CE00183030F4ADD180990F5FB0D11F5FF8CFE8
:1003DE00E02FBDC0AA9324971A93EF81E983EE8193
:1003EE00EA83ED81EB83EA85A6D119F4AC9AA8D104
:1003FE000FC0E230A0E0FA0721F4AC98AD9AAB98AA
:10040E0007C0E330A0E0FA0719F4AC98AD98AB9AA8
:10041E00E985E068E987A985BCDF8AE48A95F1F76A
:10042E0010E0E8851E1740F48ED1DE0111963FD103
:10043E00AC91AFDF1F5FF5CFAC9882D118812B96B0
:10044E000895AA9328971A9310E0143040F47BD1A4
:10045E00DE0115962CD1E0E0EC931F5FF6CFEB8515
:10046E006AD119F4AC9A6CD10FC0E230A0E0FA0751
:10047E0021F4AC98AD9AAB9807C0E330A0E0FA0730
:10048E0019F4AC98AD98AB9AAAE0B0E0C7D1EA8562
:10049E00EF73EA87AA857DDF10E0E9851E1768F401
:1004AE0052D1DE011596EA0FFB1FFF93EF9385DF06
:1004BE00AF91BF91EC931F5FF0CFAC9841D1E0E0CC
:1004CE00E983EA83EB83EC8310E0E9851E1780F461
:1004DE003DD1E8E0BAD13FD136D1DE011596E7D055
:1004EE00EC91F0E033D1C2D1A3D135D11F5FEDCF66
:1004FE00E981FA816B817C8118812C96089506D250
:10050E0000E010E09DD02CD130D12FD131D100E0C0
:10051E0010E0006495D024D11A930A9329D190D07B
:10052E002CD131D12AD1016010662DD1EFE1EA93A1
:10053E0087D0EAE2EA9319D1A0E04CDF81D0EEE158
:10054E00EA937ED0EFEFEA9310D1A0E043DF09915A
:10055E0019910895AA93DAD10C8110E0183040F465
:10056E0007FF02C0C39A01C0C39811D11F5FF6CF17
:10057E000B8110E0183040F407FF02C0C39A01C08F
:10058E00C39805D11F5FF6CF0A8110E0183040F4F2
:10059E0007FF02C0C39A01C0C398F9D01F5FF6CF00
:1005AE00C19AC198BAD125960895ACD151E010E008
:1005BE0000E030E0A394EA2DE150A52F3ED15E2F4E
:1005CE00E8E0EA1518F4E1E0AE2E51E0E4D0E8D010
:1005DE0009F03160E0D0EFD009F03260DCD0FBD012
:1005EE00FDD009F03460D7D005D109F038600CD1B8
:1005FE00D7D009F0306408D1DED009F0306204D1D2
:10060E00EAD0ECD009F03061FFD0F4D009F03068B8
:10061E0000D1C6D009F00064FCD0CDD009F0006244
:10062E00F8D0D9D0DBD009F00061F3D0E3D009F0D7
:10063E0000685A930A93A32F8DDF6BD126960895E7
:10064E00E1E0EA930895E6E1EA93A3E0FADEDF0142
:10065E00CB0108952BD1EE83FF8368877987E72D31
:10066E000895A6E6B1E0F0E0EE0FFF1F0895EA0F41
:10067E00FB1FAE81BF81A083B183A2E3B0E0CEC0E9
:10068E00A0E7B1E0F0E0EE0FFF1F0895AAE7B1E09A
:10069E00F0E0EE0FFF1F0895E32FF0E0DE011A9653
:1006AE00EE0FFF1F0895EA0FFB1F0F010895AE0F07
:1006BE00BF1F089523D1D001ED93FC930895F7DF6A
:1006CE000D901C90E22FF0E0DE011A96EE0FFF1F48
:1006DE00EEDF14D1E015F1050895E9DF0D911C91BF
:1006EE00DBCFE22FF0E0DE011A96EE0FFF1F08952A
:1006FE00DEDFE0CFEA0FFB1F00831183089540E099
:10070E0050E031E00895D3DFF9D04E0F5F1F08950A
:10071E00DA01E3E0F0E0B7D0AF01E8ECEB150895B5
:10072E00000F949A83E98A95F1F70895949883E9D6
:10073E008A95F1F70895F0E0E130A0E0FA07089508
:10074E00AD98AB980895E12FF0E00895A981BA8194
:10075E008B819C810895E983FA836B837C83089552
:10076E00E9E0EA93E2E0EA930895E0E0EA9308957F
:10077E00A0E030DEA4EFB1E051C0E9E0EA93A2E0E0
:10078E0060DE8F010895A4EFB1E048D059CF000F7D
:10079E00C59AC5980895A0916001B0916101089520
:1007AE00E8EEF3E070D02E2FF0E0EC57FE4F108104
:1007BE00E52FE1230895E4E6F0E065D0DF01EAE0FD
:1007CE00F0E099D02E2FF0E0EC57FE4F1081146020
:1007DE00E52FE1230895EAE0F0E0089554D0DF011B
:1007EE00FADF89D02E2FF0E0EC57FE4F1081E52F67
:1007FE00E1230895F0DF7FD02E2FF0E0EC57FE4F6F
:10080E001081E52FE1230895A0916201B09163015B
:10081E000895A0916401B09165010895109639F084
:10082E008DEC9AE00197F1F7A8951197C9F7089505
:10083E00EA0FFB1F681F791F0895EE230E2EEA2F75
:10084E0019F0EE0F0A94E9F70895EE230E2EFD012E
:10085E00BC0131F0EE0FFF1F661F771F0A94D1F710
:10086E000895F695E795F695E79508956F2F660F1F
:10087E00660B762F0895FA9FF02DEB9FF00DEA9FF1
:10088E00E02DF10D08950024112490E1AA0FBB1F55
:10089E00001C111C0E1A1F0A18F40E0E1F1E01C08A
:1008AE00A1609A9599F7FD01D00108953F934F935A
:1008BE005F93002411244427552730E2AA0FBB1F53
:1008CE00881F991F001C111C441F551F0E1A1F0A4A
:1008DE00460B570B28F40E0E1F1E461F571F01C046
:1008EE00A1603A9559F7FD01BC01D001CA015F9193
:1008FE004F913F910895C7DFFD010895ED91FC9151
:10090E00119708955A934A933A932A931A930A93F6
:10091E0008955D814C813B812A811981088108955A
:00000001FF
