:0E00000034C0FECFFDCFFCCFFBCFFACFF9CF3F
:10000E00F8CF58C0F6CFF5CFF4CFF3CFF2CFF1CF74
:10001E00F0CFEFCFEECFEDCF0000000000000100DB
:10002E00F981BAABC36B7BA1FBEB010002000400AC
:10003E00080040002000100080000040002000104A
:10004E0000800100020026000600060028000A00BB
:10005E0084012E0018008F0138000000F894EE275E
:10006E00ECBBF1E0FBBFEBBFE5BF8DE0A2E0BB2731
:10007E00ED938A95E9F780E094E0A0E6ED93019781
:10008E00E9F7E0E5F0E085919591009761F0A59193
:10009E00B59105901590BF01F00105900D92019755
:1000AE00E1F7FB01F0CFEFE5EDBFE4E0EEBFC0E618
:1000BE00D1E033C10A921A92FA926A937A938A9392
:1000CE009A93AA93BA93EA93FA93EFB7EA93EAEA6A
:1000DE00EDBDE0E0ECBDE8ECBE1608F4B39449D2F9
:1000EE0020FC04C021FC02C022FE0DC06394E4E695
:1000FE006E1610F4AA9A06C0E8EC6E1610F4AA98C2
:10010E0001C0662401C0AA98E991EFBFF991E99167
:10011E00B991A9919991899179916991F9901990D3
:10012E0009901895AA93E881E064E7B985E28A956B
:10013E00F1F7369A349BFECF349AE4B1F5B121969D
:10014E0008952E97F7D3BCD2BED2E0E2F3E060E082
:10015E0070E0C0D2C6D2CBD2E2E0EA93B4D2E1E5EF
:10016E00F4E060E070E0B6D2C9D2C1D2E3E0EA9327
:10017E00AAD2E1E4F2E060E070E0ACD2C5D2B7D230
:10018E00A0E0D0DF4F01A7E0B0E08DD3A4E6B0E051
:10019E008AD37FD3EF2FF0E0E05EFC4F4F017394D4
:1001AE00E5E07E1618F0689423F8772423FC0EC041
:1001BE00E0E0E0936001E0936101E0936201E0937F
:1001CE006301E0936401E0936501A4C030E0353033
:1001DE0040F4A0D2A6D2E32F84D2A7D2A9D23F5FF9
:1001EE00F6CF30E0353088F4232F253060F492D2EC
:1001FE00A4D238F48FD2AFD294D2B1D2B7D2AFD27A
:10020E00B7D22F5FF2CF3F5FEDCFB7D2343020F4AD
:10021E0081D2B7D23F5FFACFB9D221F440936001B9
:10022E0050936101E0916001F09161018E169F067D
:10023E0010F4689401C0E89420F830E0353038F4BA
:10024E0069D26FD2E32F5AD291D23F5FF7CF30E00F
:10025E00353088F4232F253060F45CD26ED238F41A
:10026E0059D279D25ED27BD281D279D281D22F5F0E
:10027E00F2CF3F5FEDCF81D2343020F44BD281D21A
:10028E003F5FFACF83D221F4409362015093630112
:10029E00E0916201F09163018E169F0610F468944E
:1002AE0001C0E89421F830E0353038F433D239D239
:1002BE00E32F2AD25BD23F5FF7CF30E0353088F4A0
:1002CE00232F253060F426D238D238F423D243D2ED
:1002DE0028D245D24BD243D24BD22F5FF2CF3F5FC3
:1002EE00EDCF4BD2343020F415D24BD23F5FFACF44
:1002FE004DD229F44093640150936501BB24E091E3
:10030E006401F09165018E169F0610F4689401C089
:10031E00E89422F816D364960895EAE3E7BBEAE27E
:10032E00E8BBECE3E4BBE0E0E5BBE2E1E1BBE0E02F
:10033E00E2BBE3BFE4E9E2BFE0E0EFBDE1E0EEBD2A
:10034E00E9EAEDBDEAE9ECBDE0E0E7BDE6BDEBBDF7
:10035E00EABDE9BDE8BDE2BDE5BDE4BDE3BDE4E057
:10036E00E9BFE0E0E5BFEAB9E0E8E8B9E0E4E7B903
:10037E00E5E8E6B9E0E0E0BFEDB9E6BF7894E8EB7A
:10038E00F2E2E0936001F0936101E0936201F09379
:10039E006301E0936401F0936501C0D0689420F886
:1003AE00A4E6B0E05BD2E89420F8CBDEFECFFFCF20
:1003BE00AA93C4D20A8110E0183058F4E02FE078E6
:1003CE00E03811F4919A01C09198E8D1EDD11F5FF8
:1003DE00F3CFBBD223960895B1D200E010E01830CF
:1003EE0030F4DCD180990F5FDFD11F5FF8CFE02FA3
:1003FE00BDC0AA9324971A93EF81E983EE81EA8315
:10040E00ED81EB83EA85D5D119F4AC9AD7D10FC023
:10041E00E230A0E0FA0721F4AC98AD9AAB9807C091
:10042E00E330A0E0FA0719F4AC98AD98AB9AE985E1
:10043E00E068E987A985BCDF8AE48A95F1F710E0C8
:10044E00E8851E1740F4BDD1DE0111966ED1AC9138
:10045E00AFDF1F5FF5CFAC98B1D118812B96089501
:10046E00AA9328971A9310E0143040F4AAD1DE0113
:10047E0015965BD1E0E0EC931F5FF6CFEB8599D13B
:10048E0019F4AC9A9BD10FC0E230A0E0FA0721F428
:10049E00AC98AD9AAB9807C0E330A0E0FA0719F418
:1004AE00AC98AD98AB9AAAE0B0E0D8D1EA85EF73DC
:1004BE00EA87AA857DDF10E0E9851E1768F481D1F1
:1004CE00DE011596EA0FFB1FFF93EF9385DFAF91C9
:1004DE00BF91EC931F5FF0CFAC9870D1E0E0E98351
:1004EE00EA83EB83EC8310E0E9851E1780F46CD170
:1004FE00E8E0C3D16ED165D1DE01159616D1EC912F
:10050E00F0E062D1CBD1B4D164D11F5FEDCFE981E0
:10051E00FA816B817C8118812C9608950FD200E0B0
:10052E0010E0CED05BD15FD15ED160D100E010E0A3
:10053E000064C6D053D11A930A9358D1C1D05BD15F
:10054E0060D159D1016010665CD1EFE1EA93B8D069
:10055E00EAE2EA9348D1A0E04CDFB2D0EEE1EA93B2
:10056E00AFD0EFEFEA933FD1A0E043DF09911991AD
:10057E0008951A93ECE0EA1510F4E1E0AE2EE1E0F6
:10058E00EA1519F442D146D141C0E2E0EA1519F458
:10059E003CD144D138C0E3E0EA1519F436D143D149
:1005AE0032C0E4E0EA1511F430D12DC0E5E0EA15D1
:1005BE0019F43ED12FD12AC0E6E0EA1519F438D14C
:1005CE002DD121C0E7E0EA1519F432D12CD11BC090
:1005DE00E8E0EA1511F42CD116C0E9E0EA1519F499
:1005EE002CD118D113C0EAE0EA1519F426D116D190
:1005FE000AC0EBE0EA1519F420D115D104C0ECE0E5
:10060E00EA1529F41AD1EAE0F0E08DD11E2FAA9254
:10061E00A12F2ED0A39419910895AA938FD10C8156
:10062E0010E0183040F407FF02C0C39A01C0C3980F
:10063E0009D11F5FF6CF0B8110E0183040F407FF91
:10064E0002C0C39A01C0C398FDD01F5FF6CF0A81C6
:10065E0010E0183040F407FF02C0C39A01C0C398DF
:10066E00F1D01F5FF6CFC19AC1986FD1259608952C
:10067E00AA9362D110E000E030E0E8D057D1EF2F1E
:10068E00F0E00E2FE3D0EC913E2FAD81A23021F0A1
:10069E00A63011F0AA3009F414E0EC81F0E0EC572A
:1006AE00FE4FE0811E2BAC81AA3019F430E000E041
:1006BE0010E01A930A93A32FB0DF45D12696089522
:1006CE00E1E0EA930895E6E1EA93A3E0C9DEDF01F3
:1006DE00CB01089503D1EE83FF8368877987E72DD9
:1006EE000895A6E6B1E0F0E0EE0FFF1F0895EA0FC1
:1006FE00FB1FAE81BF81A083B1830895A0E7B1E057
:10070E00F0E0EE0FFF1F0895AAE7B1E0F0E0EE0F64
:10071E00FF1F0895E32FF0E0DE011A96EE0FFF1F84
:10072E000895EA0FFB1F0F010895AE0FBF1F089526
:10073E00FDD0D001ED93FC930895F7DF0D901C9042
:10074E00E22FF0E0DE011A96EE0FFF1FEEDFEED085
:10075E00E015F1050895E9DF0D911C91DBCFE22F35
:10076E00F0E0DE011A96EE0FFF1F0895DEDFE0CFF8
:10077E00EA0FFB1F00831183089540E050E031E043
:10078E000895D3DFD3D04E0F5F1F0895DA01E3E053
:10079E00F0E091D0AF01E8ECEB150895000F949ABC
:1007AE0083E98A95F1F70895949883E98A95F1F78C
:1007BE000895F0E0E130A0E0FA070895AD98AB9807
:1007CE000895E12FF0E00895A981BA818B819C8173
:1007DE000895E983FA836B837C830895E9E0EA93B5
:1007EE00E2E0EA930895E0E0EA930895A0E001DEE6
:1007FE00A4EFB1E033C0E9E0EA93A2E031DE8F016D
:10080E000895A4EFB1E02AD05BCFA0916001B09122
:10081E0061010895E8EEF3E04ED00895E4E6F0E0CD
:10082E004AD0DF010895EAE0F0E045D0DF010895F7
:10083E00A0916201B09163010895A0916401B091FD
:10084E0065010895000FC59AC5980895ED81F0E0F1
:10085E003197AFE8B1E0EE0FFF1F67CF109639F07A
:10086E008DEC9AE00197F1F7A8951197C9F70895C5
:10087E00EA0FFB1F681F791F0895EE230E2EFD0150
:10088E00BC0131F0EE0FFF1F661F771F0A94D1F7E0
:10089E000895F695E795F695E79508956F2F660FEF
:1008AE00660B762F0895FA9FF02DEB9FF00DEA9FC1
:1008BE00E02DF10D08950024112490E1AA0FBB1F25
:1008CE00001C111C0E1A1F0A18F40E0E1F1E01C05A
:1008DE00A1609A9599F7FD01D00108953F934F932A
:1008EE005F93002411244427552730E2AA0FBB1F23
:1008FE00881F991F001C111C441F551F0E1A1F0A1A
:10090E00460B570B28F40E0E1F1E461F571F01C015
:10091E00A1603A9559F7FD01BC01D001CA015F9162
:10092E004F913F910895C7DFFD010895ED91FC9120
:10093E00119708955A934A933A932A931A930A93C6
:10094E0008955D814C813B812A811981088108952A
:00000001FF
