:100000001EC0FECFFDCFFCCFFBCFFACFF9CFF8CF8C
:1000100042C0F6CFF5CFF4CFF3CFF2CFF1CFF0CF90
:10002000EFCFEECFEDCF0000000100000000000098
:100030000100020026000800060028000000F894D5
:10004000EE27ECBBF1E0FBBFEBBFE5BF8DE0A2E02C
:10005000BB27ED938A95E9F780E094E0A0E6ED9365
:100060000197E9F7E0E3F0E085919591009761F061
:10007000A591B59105901590BF01F00105900D92E5
:100080000197E1F7FB01F0CFEFE5EDBFE4E0EEBF54
:10009000C0E6D1E0DDC10A921A92FA926A937A938D
:1000A0008A939A93AA93BA93EA93FA93EFB7EA934F
:1000B0001A9310E0EAEAEDBDE0E0ECBDECE0E715F4
:1000C00010F4E1E07E2EE1E0E71519F4D4017CD2D2
:1000D00041C0E2E0E71519F4D4017AD238C0E3E078
:1000E000E71519F4D40179D232C0E4E0E71511F430
:1000F000D4012DC0E5E0E71519F4D50165D22AC079
:10010000E6E0E71519F4D50163D221C0E7E0E71571
:1001100019F4D50162D21BC0E8E0E71511F4D5014E
:1001200016C0E9E0E71519F4D6014ED213C0EAE093
:10013000E71519F4D6014CD20AC0EBE0E71519F423
:10014000D6014BD204C0ECE0E71529F4D601EAE071
:10015000F0E029D31E2FE72D7394EA93A12F3AD014
:100160001991E991EFBFF991E991B991A99199910B
:10017000899179916991F990199009901895AA93AC
:100180001DD30C8110E0183040F42CD211F4C39A26
:1001900001C0C3982BD21F5FF6CF0B8110E018303F
:1001A00040F420D211F4C39A01C0C3981FD21F5F3C
:1001B000F6CF0A8110E0183040F414D211F4C39A3B
:1001C00001C0C39813D21F5FF6CFC19AC198FDD268
:1001D00025960895AA93F0D210E000E030E0ED817A
:1001E00009D219F431E000E04BC009D221F432E029
:1001F00000E014E045C007D219F434E000E040C04C
:10020000E430A0E0FA0719F438E000E039C0E53046
:10021000A0E0FA0719F430E400E032C0E630A0E0D4
:10022000FA0721F430E200E014E02AC0E730A0E051
:10023000FA0719F430E100E023C0E830A0E0FA0743
:1002400019F430E800E01CC0E930A0E0FA0719F426
:1002500030E000E415C0EA30A0E0FA0721F430E015
:1002600000E214E00DC0EB30A0E0FA0719F430E032
:1002700000E106C0EC30A0E0FA0711F430E000E83D
:10028000EC81F0E0309711F4196F31C0E130A0E05B
:10029000FA0711F411682BC0B2D111F41A6B27C000
:1002A000B2D111F41B6A23C0E430A0E0FA0711F4C4
:1002B000136C1DC0E530A0E0FA0711F41B6617C0EF
:1002C000E630A0E0FA0711F41B6711C0E730A0E0A8
:1002D000FA0711F411EA0BC0E830A0E0FA0711F4B4
:1002E0001B6F05C0E930A0E0FA0709F41B6E1A93F2
:1002F0000A93A32F44DF67D226960895A8975AD26F
:10030000E62D85D18AD1FF93EF93E1E089D1AF91BA
:10031000BF91ED93FC93E62D88D17FD1FF93EF93AE
:10032000E2E07ED1AF91BF9186D1E62D87D175D124
:10033000FF93EF93E3E074D1AF91BF917CD16394CD
:10034000E4E16E1618F0689420F8662420FC07C0DB
:1003500088249924AA24BB24CC24DD2476C030E050
:10036000343140F471D177D1E32F51D177D179D1A4
:100370003F5FF6CF30E0343188F4232F243160F42E
:1003800063D172D138F460D17DD165D17FD185D16F
:100390007DD185D12F5FF2CF3F5FEDCF84D13F304C
:1003A00020F452D184D13F5FFACF86D14A0130E0A8
:1003B000343138F449D14FD1E32F37D16ED13F5F7B
:1003C000F7CF30E0343188F4232F243160F43CD16E
:1003D0004BD138F439D156D13ED158D15ED156D116
:1003E0005ED12F5FF2CF3F5FEDCF5DD13F3020F484
:1003F0002BD15DD13F5FFACF5FD15A0130E034316C
:1004000038F422D128D1E32F19D147D13F5FF7CF5C
:1004100030E0343188F4232F243160F415D124D115
:1004200038F412D12FD117D131D137D12FD137D1C3
:100430002F5FF2CF3F5FEDCF36D13F3020F404D1B4
:1004400036D13F5FFACF38D16A01BBD1AE9608955D
:10045000EAE3E7BBE0E0E8BBECE3E4BBE0E0E5BBFC
:10046000E2E1E1BBE0E0E2BBE3BFE4E9E2BFE0E000
:10047000EFBDE1E0EEBDE9EAEDBDEAE9ECBDE0E0AB
:10048000E7BDE6BDEBBDEABDE9BDE8BDE2BDE5BD4A
:10049000E4BDE3BDE4E0E9BFE0E0E5BFEAB9E0E8E0
:1004A000E8B9E0E4E7B9E5E8E6B9E0E0E0BFEDB9D6
:1004B000E6BF7894E8EBF2E24F015F016F01A0E143
:1004C000B7E219D1AA9AA4E6B0E015D1AA98A8EC8F
:1004D000B0E011D113DFFBCFFFCFAA936FD10A8118
:1004E00010E0183050F47ED011F4919A01C0919828
:1004F000000FE8D0ECD01F5FF4CF67D123960895AA
:100500005DD100E010E0183038F4DCD080990F5F46
:10051000000FDDD01F5FF7CFE02F099119910895EB
:10052000AA9328971A9310E0143030F4D5D096D0BF
:10053000E0E0EC931F5FF8CFEB855CD021F4AC9A40
:10054000AD98AB980BC05BD021F4AC98AD9AAB984A
:1005500005C059D019F4AC98AD98AB9AEA85EF7301
:10056000EA87AA85BADF10E0E9851E1750F4B4D0F7
:1005700054D0FF93EF93C4DFAF91BF91EC931F5F13
:10058000F3CFAC98AD98AB98E0E0E983EA83EB83D6
:10059000EC8310E0E9851E1770F4A3D0E8E0BAD030
:1005A000A5D09AD05BD0EC91F0E09BD0BFD0ADD07D
:1005B0009DD01F5FEFCF95D0E0E1FEE060E070E0FE
:1005C000CDD018812C960895E8EEF3E0B4D00895CC
:1005D000E4E6F0E0B0D0DF010895EAE0F0E0ABD06F
:1005E000DF010895E02FE078E0380895000FC59A04
:1005F000C5980895F0E0E130A0E0FA070895E230F0
:10060000A0E0FA070895E330A0E0FA070895A0E615
:10061000B1E0F0E0EE0FFF1F0895EA0FFB1F089511
:10062000EA93E6E1EA93A3E07BCFA8E8B1E0F0E04B
:10063000EE0FFF1F0895ED93FC930895A0EBB1E03A
:10064000F0E0EE0FFF1F0895E32FF0E0DE011696B5
:10065000EE0FFF1F0895E1DF0F010895AE0FBF1FDA
:100660000895A4D0D001E7CFF9DF0D901C90E22FC0
:10067000F0E0DE011696EE0FFF1FF0DF97D0E015D9
:10068000F1050895EBDF0D911C91DECFE22FF0E034
:10069000DE011696EE0FFF1F0895E0DFE2CFBDDF0B
:1006A00000831183089540E050E035E00895D6DFDF
:1006B0007DD04E0F5F1F0895DA01EAE0F0E03BD0F5
:1006C000AF010895949A83E98A95F1F70895949873
:1006D00083E98A95F1F70895E12FF0E0DE011596A0
:1006E0000895A981BA818B819C810895E983FA8359
:1006F0006B837C830895109639F08DEC9AE0019716
:10070000F1F7A8951197C9F70895EA0FFB1F681F25
:10071000791F0895EE230E2EFD01BC0131F0EE0F7E
:10072000FF1F661F771F0A94D1F708956F2F660F7A
:10073000660B762F08950024112490E1AA0FBB1FA9
:10074000001C111C0E1A1F0A18F40E0E1F1E01C0E9
:10075000A1609A9599F7FD01D00108953F934F93B9
:100760005F93002411244427552730E2AA0FBB1FB2
:10077000881F991F001C111C441F551F0E1A1F0AA9
:10078000460B570B28F40E0E1F1E461F571F01C0A5
:10079000A1603A9559F7FD01BC01D001CA015F91F2
:1007A0004F913F910895C7DFFD010895ED91FC91B0
:1007B000119708955A934A933A932A931A930A9356
:1007C00008955D814C813B812A81198108810895BA
:00000001FF
