:0A00000035C0FECFFDCFFCCFFBCFD3
:10000A00FACFF9CFF8CF59C0F6CFF5CFF4CFF3CF67
:10001A00F2CFF1CFF0CFEFCFEECFEDCF000000015E
:10002A00000000000000F981BAABC36B7BA1FBEBB7
:10003A0001000200040008004000200010008000B7
:10004A000040002000100080010002002600080085
:10005A00060028000A008201300018008D013A00CB
:10006A000000F894EE27ECBBF1E0FBBFEBBFE5BF65
:10007A008DE0A2E0BB27ED938A95E9F780E094E052
:10008A00A0E6ED930197E9F7E2E5F0E08591959115
:10009A00009761F0A591B59105901590BF01F00107
:1000AA0005900D920197E1F7FB01F0CFEFE5EDBF67
:1000BA00E4E0EEBFC0E6D1E0D2C10A921A92FA9207
:1000CA006A937A938A939A93AA93BA93EA93FA933E
:1000DA00EFB7EA931A9310E0EAEAEDBDE0E0ECBD6F
:1000EA00E0918101EF5FE0938101A0918101A93C38
:1000FA0018F0E0E0E0938101ECE0E71510F4E1E0AC
:10010A007E2EE1E0E71519F4D401D5D241C0E2E030
:10011A00E71519F4D401D3D238C0E3E0E71519F48E
:10012A00D401D2D232C0E4E0E71511F4D4012DC0D3
:10013A00E5E0E71519F4D501BED22AC0E6E0E715D5
:10014A0019F4D501BCD221C0E7E0E71519F4D501AD
:10015A00BBD21BC0E8E0E71511F4D50116C0E9E0EF
:10016A00E71519F4D601A7D213C0EAE0E71519F486
:10017A00D601A5D20AC0EBE0E71519F4D601A4D23C
:10018A0004C0ECE0E71529F4D601EAE0F0E0CBD3AD
:10019A001E2F7A92A12F6CD0739420FC04C021FCEC
:1001AA0002C022FE15C0E0918001EF5FE09380015A
:1001BA00A0918001A43610F4AA9A09C0A0918001E6
:1001CA00A83C10F4AA9803C0E0E0E093800101C0C3
:1001DA00AA981991E991EFBFF991E991B991A99179
:1001EA009991899179916991F99019900990189545
:1001FA00AA93E881E064E7B985E28A95F1F7369A2D
:10020A00349BFECF349AE4B1F5B121960895AA93AE
:10021A0095D30C8110E0183040F45BD211F4C39AE4
:10022A0001C0C3985AD21F5FF6CFC39A0B8110E060
:10023A00183040F44ED211F4C39A01C0C3984DD27B
:10024A001F5FF6CFC39A0A8110E0183040F441D2FA
:10025A0011F4C39A01C0C39840D21F5FF6CFC39A64
:10026A00C19A87E38A95F1F7C1986FD325960895C5
:10027A00AA9362D310E000E030E039D257D3EF2FCF
:10028A00F0E00E2F34D2EC913E2FAD81A23021F056
:10029A00A63011F0AA3009F414E0EC81F0E0EE5730
:1002AA00FE4FE0811E2BAC81AA3019F430E000E049
:1002BA0010E01A930A93A32FAADF45D3269608952E
:1002CA002E9738D31ED220D2E0E2F3E060E070E04D
:1002DA0022D228D22DD2E2E0EA9316D2E1E5F4E066
:1002EA0060E070E018D22BD223D2E3E0EA930CD27A
:1002FA00E1E4F2E060E070E00ED227D219D2A0E089
:10030A0077DF29D22DD2E7E0D0D2A4E6B0E0C5D279
:10031A00BAD2EF2FF0E0E05EFC4F1DD26394E5E025
:10032A006E1618F0689423F8662423FC07C0882404
:10033A009924AA24BB24CC24DD248EC030E0353095
:10034A0040F413D219D2E32FEDD11AD21CD23F5F57
:10035A00F6CF30E0353088F4232F253060F405D20B
:10036A0017D238F402D222D207D224D22AD222D2E7
:10037A002AD22F5FF2CF3F5FEDCF2AD2343020F45A
:10038A00F4D12AD23F5FFACF2CD24A01E9D1A8157B
:10039A00B90510F4689401C0E89420F830E03530CB
:1003AA0038F4E3D1E9D1E32FCAD10BD23F5FF7CFBB
:1003BA0030E0353088F4232F253060F4D6D1E8D1E7
:1003CA0038F4D3D1F3D1D8D1F5D1FBD1F3D1FBD1C4
:1003DA002F5FF2CF3F5FEDCFFBD1343020F4C5D190
:1003EA00FBD13F5FFACFFDD15A01BAD1AA15BB059D
:1003FA0010F4689401C0E89421F830E0353038F4FC
:10040A00B4D1BAD1E32FA1D1DCD13F5FF7CF30E02D
:10041A00353088F4232F253060F4A7D1B9D138F4C8
:10042A00A4D1C4D1A9D1C6D1CCD1C4D1CCD12F5F4A
:10043A00F2CF3F5FEDCFCCD1343020F496D1CCD17E
:10044A003F5FFACFCED16A018BD1AC15BD0510F44E
:10045A00689401C0E89422F874D264960895EAE395
:10046A00E7BBEAE2E8BBECE3E4BBE0E0E5BBE2E1E0
:10047A00E1BBE0E0E2BBE3BFE4E9E2BFE0E0EFBDFD
:10048A00E1E0EEBDE9EAEDBDEAE9ECBDE0E0E7BD99
:10049A00E6BDEBBDEABDE9BDE8BDE2BDE5BDE4BD33
:1004AA00E3BDE4E0E9BFE0E0E5BFEAB9E0E8E8B9C6
:1004BA00E0E4E7B9E5E8E6B9E0E0E0BFEDB9E6BFB8
:1004CA007894E2EDF4E04F01E9E2F9E05F01E2E756
:1004DA00F2E26F01BFD0689420F8A4E6B0E0B8D188
:1004EA00E89420F8EDDE83D1FDCFFFCFAA9326D280
:1004FA000A8110E0183048F4ECD011F4919A01C046
:10050A00919878D17DD11F5FF5CF1FD22396089598
:10051A0015D200E010E0183030F46CD180990F5FEA
:10052A006FD11F5FF8CFE02FC3C0AA9324971A9305
:10053A00EF81E983EE81EA83ED81EB83EA8565D178
:10054A0019F4AC9A67D10FC0E230A0E0FA0721F49F
:10055A00AC98AD9AAB9807C0E330A0E0FA0719F45B
:10056A00AC98AD98AB9AE985E068E987A985BEDFC2
:10057A008AE48A95F1F710E0E8851E1740F44DD118
:10058A00DE011196FDD0AC91B1DF1F5FF5CFAC98BB
:10059A0041D118812B960895AA9328971A9310E0AF
:1005AA00143040F43AD1DE011596EAD0E0E0EC933B
:1005BA001F5FF6CFEB8529D119F4AC9A2BD10FC066
:1005CA00E230A0E0FA0721F4AC98AD9AAB9807C0E4
:1005DA00E330A0E0FA0719F4AC98AD98AB9AAAE018
:1005EA00B0E036D1EA85EF73EA87AA857FDF10E0AB
:1005FA00E9851E1768F411D1DE011596EA0FFB1F73
:10060A00FF93EF9385DFAF91BF91EC931F5FF0CF1C
:10061A00AC9800D1E0E0E983EA83EB83EC8310E055
:10062A00E9851E1780F4FCD0E8E021D1FED0F5D090
:10063A00DE011596A5D0EC91F0E0F2D029D112D1C5
:10064A00F4D01F5FEDCFE981FA816B817C8118813B
:10065A002C96089573D100E010E053D0EBD0EFD080
:10066A00EED0A0E062DFC3D000E010E0006449D021
:10067A00E1D01A930A93A0E058DFB9D042D0E2D071
:10068A00B6D03FD0DFD001601066B1D03AD0EFE1EA
:10069A00EA9337D0EAE2EA93D2D0A0E046DF31D03B
:1006AA00EEE1EA932ED0EFEFEA93C9D0A0E03DDF66
:1006BA00099119910895E8EEF3E0FDD00895E4E672
:1006CA00F0E0F9D0DF010895EAE0F0E0F4D0DF01CC
:1006DA000895E02FE078E0380895000FC59A8BE07E
:1006EA008A95F1F7C59884E08A95F1F70895ED8126
:1006FA00F0E03197ADE8B1E0EE0FFF1FAE0FBF1F7C
:10070A000895E1E0EA930895E6E1EA93A3E044DF7D
:10071A00DF01CB010895E2D0EE83FF8368877987F2
:10072A00E62D0895A0E6B1E0F0E0EE0FFF1F089570
:10073A00EA0FFB1FAE81BF81A083B1830895AAE6A9
:10074A00B1E0F0E0EE0FFF1F0895A4E7B1E0F0E09A
:10075A00EE0FFF1F0895E0937E01F0937F01089545
:10076A00A0917E01B0917F010895E32FF0E0DE01B0
:10077A001A96EE0FFF1F0895EA0FFB1F0F01089547
:10078A00AE0FBF1F0895D2D0D001ED93FC93089508
:10079A00F7DF0D901C90E22FF0E0DE011A96EE0FC3
:1007AA00FF1FEEDFC3D0E015F1050895E9DF0D91D3
:1007BA001C91DBCFE22FF0E0DE011A96EE0FFF1F4D
:1007CA000895DEDFE0CFEA0FFB1F0083118308954F
:1007DA0040E050E031E00895D3DFA8D04E0F5F1F0C
:1007EA000895DA01E3E0F0E066D0AF010895A4EFDE
:1007FA00B1E02EC0000F949A83E98A95F1F7089523
:10080A00949883E98A95F1F70895F0E0E130A0E041
:10081A00FA070895AD98AB980895E12FF0E008958E
:10082A00A981BA818B819C810895E983FA836B83BC
:10083A007C830895E9E0EA93E2E0EA930895E0E030
:10084A00EA930895E9E0EA93A2E0A6DE8F0108950B
:10085A00109639F08DEC9AE00197F1F7A895119767
:10086A00C9F70895EA0FFB1F681F791F0895EE2341
:10087A000E2EFD01BC0131F0EE0FFF1F661F771F20
:10088A000A94D1F70895F695E795F695E7950895B0
:10089A006F2F660F660B762F0895FA9FF02DEB9F48
:1008AA00F00DEA9FE02DF10D08956E2F6A9FF00179
:1008BA006B9FF00D08950024112490E1AA0FBB1F2D
:1008CA00001C111C0E1A1F0A18F40E0E1F1E01C05E
:1008DA00A1609A9599F7FD01D00108953F934F932E
:1008EA005F93002411244427552730E2AA0FBB1F27
:1008FA00881F991F001C111C441F551F0E1A1F0A1E
:10090A00460B570B28F40E0E1F1E461F571F01C019
:10091A00A1603A9559F7FD01BC01D001CA015F9166
:10092A004F913F910895C7DFFD010895ED91FC9124
:10093A00119708955A934A933A932A931A930A93CA
:10094A0008955D814C813B812A811981088108952E
:00000001FF
