:040000001EC0FECF51
:10000400FDCFFCCFFBCFFACFF9CFF8CF42C0F6CF6C
:10001400F5CFF4CFF3CFF2CFF1CFF0CFEFCFEECFD8
:10002400EDCF00000001000000000000010002000C
:1000340026000800060028000000F894EE27ECBB18
:10004400F1E0FBBFEBBFE5BF8DE0A2E0BB27ED9382
:100054008A95E9F780E094E0A0E6ED930197E9F74B
:10006400E0E3F0E085919591009761F0A591B59159
:1000740005901590BF01F00105900D920197E1F7ED
:10008400FB01F0CFEFE5EDBFE4E0EEBFC0E6D1E069
:10009400DFC10A921A92FA926A937A938A939A9394
:1000A400AA93BA93EA93FA93EFB7EA931A9310E0F8
:1000B400EAEAEDBDE0E0ECBDECE0E71510F4E1E0C8
:1000C4007E2EE1E0E71519F4D401CCD241C0E2E080
:1000D400E71519F4D401CAD238C0E3E0E71519F4DE
:1000E400D401C9D232C0E4E0E71511F4D4012DC023
:1000F400E5E0E71519F4D501B5D22AC0E6E0E71525
:1001040019F4D501B3D221C0E7E0E71519F4D501FC
:10011400B2D21BC0E8E0E71511F4D50116C0E9E03E
:10012400E71519F4D6019ED213C0EAE0E71519F4D5
:10013400D6019CD20AC0EBE0E71519F4D6019BD294
:1001440004C0ECE0E71529F4D601EAE0F0E083D33B
:100154001E2FE72D7394EA93A12F3AD01991E991B8
:10016400EFBFF991E991B991A99199918991799107
:100174006991F990199009901895AA9377D30C81F5
:1001840010E0183040F47CD211F4C39A01C0C39833
:100194007BD21F5FF6CF0B8110E0183040F470D291
:1001A40011F4C39A01C0C3986FD21F5FF6CF0A81BE
:1001B40010E0183040F464D211F4C39A01C0C3981B
:1001C40063D21F5FF6CFC19AC19857D3259608957D
:1001D400AA934AD310E000E030E0ED8159D219F43B
:1001E40031E000E04BC059D221F432E000E014E0E9
:1001F40045C057D219F434E000E040C0E430A0E038
:10020400FA0719F438E000E039C0E530A0E0FA0755
:1002140019F430E400E032C0E630A0E0FA0721F43B
:1002240030E200E014E02AC0E730A0E0FA0719F455
:1002340030E100E023C0E830A0E0FA0719F430E828
:1002440000E01CC0E930A0E0FA0719F430E000E453
:1002540015C0EA30A0E0FA0721F430E000E214E02F
:100264000DC0EB30A0E0FA0719F430E000E106C05D
:10027400EC30A0E0FA0711F430E000E8EC81F0E0A3
:10028400309711F4196F31C0E130A0E0FA0711F48E
:1002940011682BC002D211F41A6B27C002D211F4D8
:1002A4001B6A23C0E430A0E0FA0711F4136C1DC0EC
:1002B400E530A0E0FA0711F41B6617C0E630A0E0B1
:1002C400FA0711F41B6711C0E730A0E0FA0711F434
:1002D40011EA0BC0E830A0E0FA0711F41B6F05C067
:1002E400E930A0E0FA0709F41B6E1A930A93A32FCE
:1002F40044DFC1D226960895A897B4D2E62DD5D16D
:10030400DAD1FF93EF93DAD1DCD1AF91BF91ED93C2
:10031400FC93E62DDAD1CFD1FF93EF93E2E0EA9399
:10032400D0D1AF91BF91D7D1E62DD8D1C4D1FF930D
:10033400EF93E3E0EA93C5D1AF91BF91CCD163943D
:10034400E4E16E1618F0689420F8662420FC07C0D7
:1003540088249924AA24BB24CC24DD2476C030E04C
:10036400343140F4C1D1C7D1E32F9FD1C7D1C9D112
:100374003F5FF6CF30E0343188F4232F243160F42A
:10038400B3D1C2D138F4B0D1CDD1B5D1CFD1D5D13B
:10039400CDD1D5D12F5FF2CF3F5FEDCFD4D13F3058
:1003A40020F4A2D1D4D13F5FFACFD6D14A0130E0B4
:1003B400343138F499D19FD1E32F87D1BED13F5F37
:1003C400F7CF30E0343188F4232F243160F48CD11A
:1003D4009BD138F489D1A6D18ED1A8D1AED1A6D1E2
:1003E400AED12F5FF2CF3F5FEDCFADD13F3020F4E0
:1003F4007BD1ADD13F5FFACFAFD15A0130E0343178
:1004040038F472D178D1E32F69D197D13F5FF7CF18
:1004140030E0343188F4232F243160F465D174D171
:1004240038F462D17FD167D181D187D17FD187D18F
:100434002F5FF2CF3F5FEDCF86D13F3020F454D110
:1004440086D13F5FFACF88D16A0113D2AE96089560
:10045400EAE3E7BBE0E0E8BBECE3E4BBE0E0E5BBF8
:10046400E2E1E1BBE0E0E2BBE3BFE4E9E2BFE0E0FC
:10047400EFBDE1E0EEBDE9EAEDBDEAE9ECBDE0E0A7
:10048400E7BDE6BDEBBDEABDE9BDE8BDE2BDE5BD46
:10049400E4BDE3BDE4E0E9BFE0E0E5BFEAB9E0E8DC
:1004A400E8B9E0E4E7B9E5E8E6B9E0E0E0BFEDB9D2
:1004B400E6BF7894E8EBF2E24F015F016F01BCD034
:1004C400A0E1B7E270D1AA9AA4E6B0E06CD1AA98F0
:1004D400A8ECB0E068D110DFFBCFFFCFAA93C6D160
:1004E4000A8110E0183050F4CBD011F4919A01C075
:1004F4009198000F37D13BD11F5FF4CFBED1239623
:100504000895B4D100E010E0183038F42BD180996C
:100514000F5F000F2CD11F5FF7CFE02F09911991C6
:100524000895AA9324971A93EF81E983EE81EA83CD
:10053400ED81EB83EA85ACD019F4AC9A1DD10BC0E4
:10054400ACD021F4AC98AD9AAB9805C0AAD019F4FC
:10055400AC98AD98AB9AE985E068E987A985BEDFD8
:100564008AE48A95F1F710E0E8851E1740F407D174
:10057400DE011196C3D0AC91B1DF1F5FF5CFAC980B
:10058400FBD018812B960895AA9328971A9310E00C
:10059400143040F4F4D0DE011596B0D0E0E0EC93D2
:1005A4001F5FF6CFEB8574D019F4AC9AE5D00BC07D
:1005B40074D021F4AC98AD9AAB9805C072D019F4FC
:1005C400AC98AD98AB9AEA85EF73EA87AA8586DF83
:1005D40010E0E9851E1760F4D2D0DE0115966BD0C9
:1005E400FF93EF938EDFAF91BF91EC931F5FF1CF39
:1005F400AC98C2D0E0E0E983EA83EB83EC8310E0BB
:10060400E9851E1780F4BED0E8E0DCD0C0D0B7D0B6
:10061400DE01159673D0EC91F0E0B4D0DFD0CDD0EC
:10062400B6D01F5FEDCFAED0E0E1FEE060E070E059
:10063400EDD018812C96089541D0E9E0EA93E2E0E8
:10064400ABD0AAD0ACD0EFE1EA9338D0EAE2A4D0A0
:10065400A6D0EEE1EA9332D0E4E09ED0EA93A0E0A3
:1006640060DF0895E8EEF3E0BED00895E4E6F0E03C
:10067400BAD0DF010895EAE0F0E0B5D0DF010895D3
:10068400E02FE078E0380895000FC59AC5980895E2
:10069400F0E0E130A0E0FA070895E230A0E0FA07C4
:1006A4000895E330A0E0FA070895A0E6B1E0F0E091
:1006B400EE0FFF1F0895EA0FFB1F0895E1E0EA9390
:1006C4000895E6E1EA93A3E05FCFA8E8B1E0F0E0A3
:1006D400EE0FFF1F0895ED93FC930895A0EBB1E096
:1006E400F0E0EE0FFF1F0895E32FF0E0DE01169611
:1006F400EE0FFF1F0895DFDF0F010895AE0FBF1F38
:100704000895ACD0D001E7CFF9DF0D901C90E22F13
:10071400F0E0DE011696EE0FFF1FF0DF9FD0E0152C
:10072400F1050895EBDF0D911C91DECFE22FF0E08F
:10073400DE011696EE0FFF1F0895E0DFE2CFBBDF68
:1007440000831183089540E050E035E00895D6DF3A
:1007540085D04E0F5F1F0895DA01EAE0F0E043D040
:10076400AF010895949A83E98A95F1F708959498CE
:1007740083E98A95F1F70895AD98AB980895E12F30
:10078400F0E00895A981BA818B819C810895E98361
:10079400FA836B837C830895EA93E0E00895EA93F7
:1007A400A0E0BFDE8BCF109639F08DEC9AE0019774
:1007B400F1F7A8951197C9F70895EA0FFB1F681F71
:1007C400791F0895EE230E2EFD01BC0131F0EE0FCA
:1007D400FF1F661F771F0A94D1F708956F2F660FC6
:1007E400660B762F08950024112490E1AA0FBB1FF5
:1007F400001C111C0E1A1F0A18F40E0E1F1E01C035
:10080400A1609A9599F7FD01D00108953F934F9304
:100814005F93002411244427552730E2AA0FBB1FFD
:10082400881F991F001C111C441F551F0E1A1F0AF4
:10083400460B570B28F40E0E1F1E461F571F01C0F0
:10084400A1603A9559F7FD01BC01D001CA015F913D
:100854004F913F910895C7DFFD010895ED91FC91FB
:10086400119708955A934A933A932A931A930A93A1
:1008740008955D814C813B812A8119810881089505
:00000001FF
