:0E0000001EC0FECFFDCFFCCFFBCFFACFF9CF55
:10000E00F8CF42C0F6CFF5CFF4CFF3CFF2CFF1CF8A
:10001E00F0CFEFCFEECFEDCF0000000100000000DB
:10002E000000010002002600080006002800000063
:10003E00F894EE27ECBBF1E0FBBFEBBFE5BF8DE024
:10004E00A2E0BB27ED938A95E9F780E094E0A0E665
:10005E00ED930197E9F7E0E3F0E085919591009734
:10006E0061F0A591B59105901590BF01F001059035
:10007E000D920197E1F7FB01F0CFEFE5EDBFE4E064
:10008E00EEBFC0E6D1E088C20A921A92FA926A9343
:10009E007A938A939A93AA93BA93EA93FA93EFB7C1
:1000AE00EA931A9310E0EAEAEDBDE0E0ECBDE091D0
:1000BE00DB01EF5FE093DB012ED3A93C18F0E0E00B
:1000CE00E093DB01ECE0E71510F4E1E07E2EE1E0D9
:1000DE00E71519F4D40122D341C0E2E0E71519F473
:1000EE00D40120D338C0E3E0E71519F4D4011FD3AF
:1000FE0032C0E4E0E71511F4D4012DC0E5E0E715B8
:10010E0019F4D5010BD32AC0E6E0E71519F4D50191
:10011E0009D321C0E7E0E71519F4D50108D31BC0B8
:10012E00E8E0E71511F4D50116C0E9E0E71519F47A
:10013E00D601F4D213C0EAE0E71519F4D601F2D2D3
:10014E000AC0EBE0E71519F4D601F1D204C0ECE0D9
:10015E00E71529F4D601EAE0F0E025D41E2F20FCA5
:10016E0004C021FC02C022FE46C020FE15C0E1E004
:10017E00E71549F0E2E0E71531F0E3E0E71519F095
:10018E00E4E0E71519F4C7D2A43608F003C07A925A
:10019E00AAE001C0D1D297D021FE15C0E5E0E71547
:1001AE0049F0E6E0E71531F0E7E0E71519F0E8E091
:1001BE00E71519F4B0D2A43608F003C07A92AAE07B
:1001CE0001C0BAD280D022FE15C0E9E0E71549F091
:1001DE00EAE0E71531F0EBE0E71519F0ECE0E71592
:1001EE0019F499D2A43608F003C07A92AAE001C09D
:1001FE00A3D269D002C0A0D266D0739420FC04C0F2
:10020E0021FC02C022FE15C0E091DA01EF5FE093FF
:10021E00DA01A091DA01A43610F4AA9A09C0A091CD
:10022E00DA01A83C10F4AA9803C0E0E0E093DA01EA
:10023E0001C0AA981991E991EFBFF991E991B9918D
:10024E00A9919991899179916991F9901990099053
:10025E001895AA93E881E064E7B985E28A95F1F7EB
:10026E00369A349BFECF349AE4B1F5B121960895B7
:10027E00AA93A4D30C8110E0183040F460D211F48C
:10028E00C39A01C0C3985FD21F5FF6CF0B8110E0F7
:10029E00183040F454D211F4C39A01C0C39853D20B
:1002AE001F5FF6CF0A8110E0183040F448D211F4E7
:1002BE00C39A01C0C39847D21F5FF6CFC19AC198A7
:1002CE0084D325960895AA9377D310E000E030E00A
:1002DE00ED813DD219F431E000E04BC03DD221F466
:1002EE0032E000E014E045C03BD219F434E000E007
:1002FE0040C0E430A0E0FA0719F438E000E039C05D
:10030E00E530A0E0FA0719F430E400E032C0E63040
:10031E00A0E0FA0721F430E200E014E02AC0E73052
:10032E00A0E0FA0719F430E100E023C0E830A0E0C5
:10033E00FA0719F430E800E01CC0E930A0E0FA0733
:10034E0019F430E000E415C0EA30A0E0FA0721F419
:10035E0030E000E214E00DC0EB30A0E0FA0719F433
:10036E0030E000E106C0EC30A0E0FA0711F430E016
:10037E0000E8EC81F0E0309711F4196F39C0E130EC
:10038E00A0E0FA0711F4116833C0E6D111F41A6B2C
:10039E002FC0E6D111F41B6A2BC0E430A0E0FA079F
:1003AE0011F4136C25C0E530A0E0FA0711F41B66BA
:1003BE001FC0E630A0E0FA0711F41B6719C0E73042
:1003CE00A0E0FA0711F4116A13C0E830A0E0FA07B2
:1003DE0011F41B6F0DC0E930A0E0FA0711F41B6E8B
:1003EE0007C0EA30A0E0FA0719F430E000E010E0B0
:1003FE001A930A93A32F3CDFE6D226960895AC9764
:10040E00D9D2E1E0B1D1A4E6B0E080E090E0B4D181
:10041E00C1D1C6D1E2E0A8D1A0EAB0E080E090E080
:10042E00ABD1C5D1BDD1E3E09FD1A3E9B0E080E06F
:10043E0090E0A2D1C2D1B4D1A0E00BDFC4D1C8D11B
:10044E00E7E073D2A4E6B0E048D23DD2EF2FF0E061
:10045E00E05EFC4FB8D16394E4E16E1618F0689438
:10046E0023F8662423FC07C088249924AA24BB24DD
:10047E00CC24DD248EC030E0343140F4AED1B4D182
:10048E00E32F88D1B5D1B7D13F5FF6CF30E034310D
:10049E0088F4232F243160F4A0D1B2D138F49DD149
:1004AE00BDD1A2D1BFD1C5D1BDD1C5D12F5FF2CFA4
:1004BE003F5FEDCFC5D13F3020F48FD1C5D13F5F27
:1004CE00FACFC7D14A0184D1A815B90510F46894A2
:1004DE0001C0E89420F830E0343138F47ED184D174
:1004EE00E32F65D1A6D13F5FF7CF30E0343188F4EA
:1004FE00232F243160F471D183D138F46ED18ED193
:10050E0073D190D196D18ED196D12F5FF2CF3F5F1E
:10051E00EDCF96D13F3020F460D196D13F5FFACF28
:10052E0098D15A0155D1AA15BB0510F4689401C093
:10053E00E89421F830E0343138F44FD155D1E32F1F
:10054E003CD177D13F5FF7CF30E0343188F4232FA1
:10055E00243160F442D154D138F43FD15FD144D12B
:10056E0061D167D15FD167D12F5FF2CF3F5FEDCF02
:10057E0067D13F3020F431D167D13F5FFACF69D1D7
:10058E006A0126D1AC15BD0510F4689401C0E8943B
:10059E0022F817D2E2960895EAE3E7BBE0E0E8BB63
:1005AE00ECE3E4BBE0E0E5BBE2E1E1BBE0E0E2BBB3
:1005BE00E3BFE4E9E2BFE0E0EFBDE1E0EEBDE9EA72
:1005CE00EDBDEAE9ECBDE0E0E7BDE6BDEBBDEABDA1
:1005DE00E9BDE8BDE2BDE5BDE4BDE3BDE4E0E9BFD4
:1005EE00E0E0E5BFEAB9E0E8E8B9E0E4E7B9E5E85C
:1005FE00E6B9E0E0E0BFEDB9E6BF7894E8EBF2E2F1
:10060E004F015F016F01A8EBBBE042D1689420F867
:10061E00A4E6B0E03DD1E89420F8A8ECB0E038D1E3
:10062E00EEDEFBCFFFCFAA93C9D10A8110E01830BE
:10063E0050F485D011F4919A01C09198000F0FD10A
:10064E0013D11F5FF4CFC1D123960895B7D100E027
:10065E0010E0183038F403D180990F5F000F04D1E9
:10066E001F5FF7CFE02F099119910895AA9328974C
:10067E001A9310E0143030F4FCD0BAD0E0E0EC93D2
:10068E001F5FF8CFEB8563D021F4AC9AAD98AB9891
:10069E000BC062D021F4AC98AD9AAB9805C060D077
:1006AE0019F4AC98AD98AB9AEA85EF73EA87AA85F0
:1006BE00BADF10E0E9851E1758F4DBD0EA0FFB1FF6
:1006CE00FF93EF93C3DFAF91BF91EC931F5FF2CF18
:1006DE00AC98AD98AB98E0E0E983EA83EB83EC83CA
:1006EE0010E0E9851E1770F4C9D0E8E0E0D0CBD059
:1006FE00C0D07ED0EC91F0E0C1D0EAD0D3D0C3D040
:10070E001F5FEFCFBBD0E4EEFCE060E070E026D1DF
:10071E0018812C960895A091DB010895E8EEF3E080
:10072E000AD10895E4E6F0E006D1DF010895EAE08B
:10073E00F0E001D1DF0108957A92A12F0895E02F04
:10074E00E078E0380895000FC59AC5980895F0E056
:10075E00E130A0E0FA070895E230A0E0FA0708952C
:10076E00E330A0E0FA070895EA93E6E1EA93A3E006
:10077E007DDF662777270895B8D0DF01CB01E4E649
:10078E00F0E060E070E0EAD0EE83FF83688779875F
:10079E00E62D0895A0E6B1E0F0E0EE0FFF1F0895FC
:1007AE00EA0FFB1FAE81BF81A083B1830895A8E835
:1007BE00B1E0F0E0EE0FFF1F0895A0EBB1E0F0E026
:1007CE00EE0FFF1F0895E093D801F093D90108951D
:1007DE00A091D801B091D9010895E32FF0E0DE0188
:1007EE001A96EE0FFF1F0895EA0FFB1F0F010895D3
:1007FE00AE0FBF1F0895DAD0D001ED93FC9308958C
:10080E00F7DF0D901C90E22FF0E0DE011A96EE0F4E
:10081E00FF1FEEDFCBD0E015F1050895E9DF0D9156
:10082E001C91DBCFE22FF0E0DE011A96EE0FFF1FD8
:10083E000895DEDFE0CFEA0FFB1F008311830895DA
:10084E0040E050E035E00895D3DFB0D04E0F5F1F8B
:10085E000895DA01EAE0F0E06ED0AF010895949ABF
:10086E0083E98A95F1F70895949883E98A95F1F7CB
:10087E000895E12FF0E0DE0115960895A981BA8161
:10088E008B819C810895E983FA836B837C83089521
:10089E00109639F08DEC9AE00197F1F7A895119723
:1008AE00C9F70895EA0FFB1F681F791F0895EE23FD
:1008BE000E2EFD01BC0131F0EE0FFF1F661F771FDC
:1008CE000A94D1F70895F695E795F695E79508956C
:1008DE006F2F660F660B762F0895FA9FF02DEB9F04
:1008EE00F00DEA9FE02DF10D08957A9F702D6B9F0C
:1008FE00700DF89F700DE99F700D6A9F602D710D40
:10090E00FB9F600D711DE89F600D711D8827FA9F7A
:10091E00F02D610D781FEB9FF00D611D781FEA9F82
:10092E00E02DF10D681F781F08956E2F6A9FF0015C
:10093E006B9FF00D08950024112490E1AA0FBB1FA8
:10094E00001C111C0E1A1F0A18F40E0E1F1E01C0D9
:10095E00A1609A9599F7FD01D00108953F934F93A9
:10096E005F93002411244427552730E2AA0FBB1FA2
:10097E00881F991F001C111C441F551F0E1A1F0A99
:10098E00460B570B28F40E0E1F1E461F571F01C095
:10099E00A1603A9559F7FD01BC01D001CA015F91E2
:1009AE004F913F910895C7DFFD010895ED91FC91A0
:1009BE00119708955A934A933A932A931A930A9346
:1009CE0008955D814C813B812A81198108810895AA
:00000001FF
